:100000000C943A110C946B110C946B110C946B11B1
:100010000C946B110C946B110C946B110C946B1170
:100020000C946B110C946B110C946B110C946B1160
:100030000C946B110C946B110C946B110C946B1150
:100040000C946B110C946B110C946B110C946B1140
:100050000C946B110C946B110C946B110C941E1E70
:100060000C946B110C94FE160C94D5160C946B1119
:100070000C946B110C946B110C946B110C946B1110
:100080000C946B110C946B110C946B110C946B1100
:100090000C946B110C946B110C946B110C94341721
:1000A0000C946B110C946B110C946B110C946B11E0
:1000B0000C946B110C946B110C946B110C946B11D0
:1000C0000C946B110C946B110C946B110C946B11C0
:1000D0000C946B110C946B110C946B110C946B11B0
:1000E0000C946B11BE1DC11DB01DB41DBA1DF81DB1
:1000F000C51DC91DCF1DD31DD71DDD1DE11DE51D6E
:10010000F81DEB1DEF1DF31D00101000FE0A06A7E1
:10011000089500FFFE0EFE0BFE1010201000FEAA38
:10012000AA00018000000180004A51EA505A51C9DA
:100130009E000180000001800000018000555510E4
:1001400010201000FEAAAA000180000001800039E2
:1001500093C252325F8A5271938000000180000086
:1001600001800055551010201000FEAAAA00018041
:1001700000000180003BA5C124311989247125802C
:100180000000018000000180005555101020100073
:10019000FEAAAA00018000000180007BA5C124798D
:1001A00019C12479258000000180000001800055DC
:1001B000551010201000FEAAAA0001800000018046
:1001C0000079BFC2487A49C248798980000001801D
:1001D000000001800055551010201000FEAAAA0052
:1001E000018000000180007A4DC2527B53C2D67A52
:1001F0004F80000001800000018000555510102044
:100200001000FEAAAA000180000001800031A5CAEA
:10021000287A31CA2849A5800000018000000180A9
:100220000055551010201000FEAAAA000180000001
:1002300001800073D1CA1073D1CA1073DF8000002F
:100240000180000001800055551010201000FEAA0A
:10025000AA00018000000180001E3991401E3191EA
:10026000081E7180000001800000018000555510BB
:1002700010201000FEAAAA000180000001800022C8
:10028000F9A2203E21A2202221800000018000004E
:1002900001800055551010201000FEAAAA00018010
:1002A000000001800020F9A08020F9A0803E81801C
:1002B0000000018000000180005555101020100042
:1002C000FEAAAA000180000001800022F9A22022DB
:1002D0002194200821800000018000000180005549
:1002E000551010201000FEAAAA0001800000018015
:1002F000003EF9A0803EF9A08020818000000180AE
:10030000000001800055551010201000FEAAAA0020
:10031000018000000180001EF1A08820F1A0901E45
:1003200089800000018000000180005555101020D8
:100330001000FEAAAA00018000000180001E71A02A
:10034000881C8982883C7180000001800000018047
:100350000055551010201000FEAAAA0001800000D0
:100360000180001EF9A0201C2182203CF9800000A1
:100370000180000001800055551010201000FEAAD9
:10038000AA0001800000018000391DA510251DA5CF
:100390001039DD80000001800000018000555510FB
:1003A00010201000FEAAAA00018000000180007148
:1003B00089CA184A09CA08719D800000018000009E
:1003C00001800055551010201000FEAAAA000180DF
:1003D00000000180007199CA044A09CA10719D8009
:1003E0000000018000000180005555101020100011
:1003F000FEAAAA00018000000180007199CA044A87
:1004000019CA047199800000018000000180005524
:10041000551010201000FEAAAA00018000000180E3
:10042000007185CA0C4A15CA1C71858000000180C4
:10043000000001800055551010201000FEAAAA00EF
:10044000018000000180004993EA546A59DBD44AD4
:1004500053800000018000000180005555101020DD
:100460001000FEAAAA00018000000180003453C2DF
:100470009A311789127113800000018000000180F9
:100480000055551010201000FEAAAA00018000009F
:100490000180007BB9C1247939C1247939800000F9
:1004A0000180000001800055551010201000FEAAA8
:1004B000AA00018000000180003325C4B447ADC408
:1004C000A434A58000000180000001800055551073
:1004D00010201000FEAAAA00018000000180003E4A
:1004E00089A0D83EA9A0883E898000000180000034
:1004F00001800055551010201000FEAAAA000180AE
:1005000000000180003A5DC252325D8A52719D80C6
:1005100000000180000001800055551010201000DF
:10052000FEAAAA000180000001800079CFC21079E4
:1005300091C0507B8F800000018000000180005539
:10054000551010201000FEAAAA00018000000180B2
:10055000001E7190801E61901010E18000000180EB
:10056000000001800055551010201000FEAAAA00BE
:10057000018000000180000E719080166192100EC3
:10058000E18000000180000001800055551010201E
:100590001000FEAAAA00018000000180001C7192D8
:1005A000801C61941012E180000001800000018035
:1005B0000055551010201000FEAAAA00018000006E
:1005C00001800012719280126192100CE180000093
:1005D00001800000018000555500000008000E0158
:1005E0000A0A080400808080808080800080800566
:1005F000040408020888888888060A0A080100247A
:100600002424FC4848FC909090070A0A0801001036
:100610007C9290701C12927C10070A0A08010062FA
:1006200094946810102C52528C070A0A0801003862
:1006300044442830528A848C7201040408040880DF
:10064000808080030C0C0803FF2040408080808065
:100650008080404020030C0C0802FF804040202096
:1006600020202020404080070707080101109254F5
:1006700038549210070707080101101010FE1010DF
:10068000100204040803FEC0404080040101080277
:1006900004F0020202080300C0C0060A0A080100B2
:1006A00004040810102020408080060A0A08010077
:1006B00030488484848484844830050A0A0802000F
:1006C0002060A0202020202020F8060A0A0801002F
:1006D000788484041820408080FC060A0A080100FF
:1006E00078848404380404848478060A0A080100A3
:1006F000081828488888FC080808060A0A08010023
:10070000FC808080F80404048478060A0A0801004A
:1007100038408080F88484848478060A0A080100BE
:10072000FC040408080810101010060A0A0801004A
:1007300078848484788484848478060A0A08010092
:10074000788484847C040404087002070708030189
:10075000C0C0000000C0C00209090803FFC0C000FB
:100760000000C04040800509090802000810204030
:100770008040201008060505080102FC000000FC6E
:10078000050909080100804020100810204080065B
:100790000A0A08010078848404081010001010066A
:1007A0000A0A080100384494ACA4A4A49C403C0666
:1007B0000A0A0801003048488484FC848484840642
:1007C0000A0A080100F8848484F884848484F80682
:1007D0000A0A0801007884848080808084847806F6
:1007E0000A0A080100F08884848484848488F006DE
:1007F0000A0A080100FC808080F880808080FC0666
:100800000A0A080100FC808080F8808080808006D1
:100810000A0A08010078848480809C84848C740691
:100820000A0A08010084848484FC84848484840506
:100830000A0A080200F82020202020202020F807A3
:100840000A0A0801003E0808080808088888700697
:100850000A0A080100848890A0C0C0A0908884067D
:100860000A0A080100808080808080808080FC06E9
:100870000A0A0801008484CCCCB4B484848484063D
:100880000A0A08010084C4C4A4A494948C8C84062D
:100890000A0A080100788484848484848484780625
:1008A0000A0A080100F8848484F880808080800728
:1008B0000B0B0801FF78848484848484B4CC78068C
:1008C000060A0A080100F8848484F89088888484E1
:1008D000060A0A08010078848480601804848478F9
:1008E000070A0A080100FE10101010101010101056
:1008F000060A0A08010084848484848484848478B9
:10090000070A0A0801008282824444442828101001
:10091000060A0A08010084848484B4B4CCCC84849C
:10092000060A0A0801008484484830304848848414
:10093000070A0A080100828244442810101010108F
:10094000060A0A080100FC0404081020408080FC0C
:10095000030C0C0804FFE080808080808080808011
:1009600080E0060A0A08010080804020201010085C
:100970000404030C0C0801FFE0202020202020208C
:10098000202020E006030308010930488407010104
:100990000801FFFE03030308020A8040200608083E
:1009A0000801007884047C84848C74060B0B080195
:1009B00000808080B8C484848484C4B80608080891
:1009C00001007884808080808478060B0B08010009
:1009D000040404748C848484848C740608080801DC
:1009E00000788484FC80808478050B0B0801001853
:1009F000202020F8202020202020060B0B0801FEBC
:100A00000474888888704078848478060B0B080109
:100A100000808080B8C4848484848484050B0B089F
:100A2000020020200060202020202020F8050D0D4D
:100A30000801FE080800180808080808080890605F
:100A4000060B0B0801008080808890A0C0A09088D1
:100A500084050B0B0802006020202020202020208D
:100A600020F8070808080100EC9292929292929264
:100A7000060808080100B8C48484848484840608B5
:100A8000080801007884848484848478060A0A082B
:100A900001FEB8C484848484C4B88080060A0A082D
:100AA00001FE748C848484848C7404040608080811
:100AB0000100B8C484808080808006080808010096
:100AC0007884806018048478050A0A0801002020D0
:100AD00020F820202020201806080808010084841F
:100AE000848484848C740608080801008484844803
:100AF000484830300708080801008292929292928A
:100B0000926C0608080801008484483030488484C8
:100B1000060A0A0801FE84848484844C3404047820
:100B2000060808080100FC040810204080FC030CA3
:100B30000C0803FF608080404080804040808060DF
:100B4000010E0E0804FE808080808080808080807E
:100B500080808080030C0C0802FFC02020404020D1
:100B60002040402020C007030308010862928C1037
:100B700010201000FEAAAA0001800000018000736E
:100B8000D1CA104BD1CA1073DF8000000180000071
:100B900001800055551010201000FEAAAA00018007
:100BA0000000018000719DCA5273D3C252425D8021
:100BB0000000018000000180005555101020100039
:100BC000FEAAAA0001800000018000499DCA527A55
:100BD0005DCA5049918000000180000001800055ED
:100BE000551010201000FEAAAA000180000001800C
:100BF000007393CA52739FCA12721380000001805F
:100C0000000001800055551010201000FEAAAA0017
:100C1000018000000180004B93EA525B9FCA524B57
:100C200093800000018000000180005555101020C5
:100C30001000FEAAAA000180000001800074B9A67D
:100C4000A425A5A4A474B98000000180000001803F
:100C50000055551010201000FEAAAA0001800000C7
:100C60000180004BD1EA105BD1CA104BDF8000003D
:100C70000180000001800055551010201000FEAAD0
:100C8000AA000180000001800039CDC212319F8886
:100C900052739380000001800000018000555510C0
:100CA00010201000FEAAAA00018000000180007937
:100CB000CDC212799FC0527B93800000018000005A
:100CC00001800055551010201000FEAAAA000180D6
:100CD00000000180004B9DC9207919C90449398061
:100CE0000000018000000180005555101020100008
:100CF000FEAAAA000180000001800025DDA4843C3A
:100D000085A48424998000000180000001800055A2
:100D1000551010201000FEAAAA00018000000180DA
:100D20000045CDC4904489A88410998000000180BA
:100D3000000001800055551010201000FEAAAA00E6
:100D400001800000018000721DCA127213C212439A
:100D5000DD8000000180000001800055551010204A
:100D60001000FEAAAA00018000000180007213CAD0
:100D7000127213C21243CD80000001800000018076
:100D80000055551010201000FEAAAA000180000096
:100D90000180000E2189200E218A20092180000077
:100DA0000180000001800055551010201000FEAA9F
:100DB000AA000180000001800039DDC202318D8867
:100DC00050739F8000000180000001800055551085
:100DD00010201000FEAAAA00018000000180003946
:100DE000DDC202318D8842739D80000001800000C9
:100DF00001800055551010201000FEAAAA000180A5
:100E0000000001800071CFCA104A0DCA0271DD8056
:100E100000000180000001800055551010201000D6
:100E2000FEAAAA00018000000180007245CA4C722F
:100E300045C244418F8000000180000001800055C0
:100E4000551010201000FEAAAA00018000000180A9
:100E500000725DCA42724DC250419F800000018005
:100E6000000001800055551010201000FEAAAA00B5
:100E7000018000000180003B9DC12031198904716F
:100E800039800000018000000180005555101020BD
:100E90001000FEAAAA000180000001800039D3C220
:100EA00012421FC21239D38000000180000001806D
:100EB0000055551010201000FEAAAA000180000065
:100EC0000180002289B6882AA9A2D8228980000040
:100ED0000180000001800055551010201000FEAA6E
:100EE000AA00018000000180003B8DC252339F8A1E
:100EF000127213800000018000000180005555101F
:100F000010201000FEAAAA00018000000180007BD2
:100F10008DC2527B9FC2127A1380000001800000B4
:100F200001800055551010201000FEAAAA00018073
:100F30000000018000398FC250324D8A42719D807D
:100F400000000180000001800055551010201000A5
:100F5000FEAAAA0001800000018000339BC4222564
:100F6000A394A2639B8000000180000001800055D3
:100F7000551010201000FEAAAA0001800000018078
:100F80000039DDC20832098A0871DD800000018065
:100F9000000001800055551010201000FEAAAA0084
:100FA0000180000001800039DDC2084189C0483B52
:100FB0009D80000001800000018000555510102028
:100FC0001000FEAAAA00018000000180000EF99026
:100FD000200C2182201C2180000001800000018063
:100FE0000055551010201000FEAAAA000180000034
:100FF00001800031CFCA104991C850338F80000062
:101000000180000001800055551010201000FEAA3C
:10101000AA00018000000180001C8992D81CA990C0
:101020008810898000000180000001800055551063
:1010300010201000FEAAAA000180000001800033E9
:101040008FCA507B91CA104A0F80000001800000B7
:10105000018000555500000008000E010A0A08042E
:101060000080800080808080808080070A0A0801DC
:101070000010107C929090927C1010070A0A0801D0
:10108000001C202020F82020207CC206080808012F
:10109000018448784848784884070A0A0801008291
:1010A000442810FE10FE101010010A0A08040080E7
:1010B000808080000080808080060A0A0801007815
:1010C00084807884847804847804020208020C9076
:1010D00090080A0A0800003C4299A5A1A1A59942DE
:1010E0003C050707080205700878887800F80609AB
:1010F0000908010024244848904848242406040490
:10110000080100FC0404041010201000FEAAAA002C
:101110000180003A63C25433C98A48724980000092
:1011200001800003C18000000180005555080A0AB3
:101130000800003C42B9A5A5B9A9A5423C06010199
:1011400008010BFC03040408020A40A0A0400709A0
:1011500009080101101010FE10101000FE0507070D
:10116000080205708808708080F8050707080205E6
:101170007088087008887003030308030A20408001
:10118000080A0A0800FE4242424242426659408032
:10119000060C0C0801FF7CF4F4F4F4741414141419
:1011A000141C020202080304C0C00302020802FE6B
:1011B00020C00307070802052060A020202020058A
:1011C0000707080205708888887000F80609090872
:1011D0000100909048482448489090060A0A080167
:1011E0000044C4485050242C549C84060A0A080128
:1011F0000044C4485050283444889C060A0A080118
:1012000000C4244830D0242C549C84060A0A0801C7
:101210000010100010106084848478060E0E0801FF
:1012200000601800003048488484FC84848484066C
:101230000E0E080100186000003048488484FC84C9
:10124000848484060E0E08010030480000304848AF
:101250008484FC84848484060E0E08010064980053
:10126000003048488484FC84848484060E0E08017F
:1012700000484800003048488484FC848484840604
:101280000E0E080100304830003048488484FC8449
:10129000848484070A0A0801003E509090FE9090D2
:1012A00090909E060C0C0801FE78848480808080DB
:1012B0008484781060060E0E08010060180000FC9F
:1012C000808080F880808080FC060E0E0801001867
:1012D000600000FC808080F880808080FC060E0E1C
:1012E00008010030480000FC808080F88080808009
:1012F000FC060E0E08010048480000FC808080F8C3
:1013000080808080FC050E0E08020060180000F846
:101310002020202020202020F8050E0E080200307A
:10132000C00000F82020202020202020F8050E0EEC
:1013300008020060900000F82020202020202020BB
:10134000F8050E0E08020090900000F820202020E2
:1013500020202020F8070A0A08000078444242F2C0
:101360004242424478060E0E080100649800008450
:10137000C4C4A4A494948C8C84060E0E080100604E
:1013800018000078848484848484848478060E0E13
:101390000801001860000078848484848484848434
:1013A00078060E0E0801003048000078848484849A
:1013B0008484848478060E0E080100649800007806
:1013C000848484848484848478060E0E0801004812
:1013D00048000078848484848484848478060505A5
:1013E0000801028448304884060C0C0801FF04748C
:1013F000888C9494A4A4C444B880060E0E080100FE
:101400006018000084848484848484848478060E34
:101410000E0801001860000084848484848484841D
:101420008478060E0E08010030480000848484840D
:10143000848484848478060E0E08010048480000E5
:1014400084848484848484848478070E0E08010054
:101450001860000082824444281010101010060BFF
:101460000B0801008080F088848488F080808006EA
:101470000A0A08010070888890B0888484A49806BD
:101480000C0C080100601800007884047C84848CB3
:1014900074060C0C080100186000007884047C8439
:1014A000848C74060C0C0801003048000078840419
:1014B0007C84848C74060C0C08010064980000780D
:1014C00084047C84848C74060C0C08010048480059
:1014D000007884047C84848C74060D0D080100302F
:1014E000483000007884047C84848C7407080808E1
:1014F00001007C92127E9090927C060A0A0801FEFE
:1015000078848080808084781060060C0C0801004C
:1015100060180000788484FC80808478060C0C08B5
:10152000010018600000788484FC80808478060CB8
:101530000C08010030480000788484FC80808478A6
:10154000060C0C08010048480000788484FC808068
:101550008478050C0C080200C030000060202020B8
:10156000202020F8050C0C08020030C0000060208C
:101570002020202020F8050C0C08020060900000BC
:1015800060202020202020F8050C0C0802009090FC
:10159000000060202020202020F8060C0C0801000C
:1015A00064182844047C848484848478060C0C08A1
:1015B000010064980000B8C4848484848484060C88
:1015C0000C08010060180000788484848484847886
:1015D000060C0C0801001860000078848484848460
:1015E0008478060C0C08010030480000788484845C
:1015F00084848478060C0C080100649800007884C8
:10160000848484848478060C0C0801004848000017
:101610007884848484848478060707080101300074
:1016200000FC000030060A0A0801FF04788C94943C
:10163000A4A4C47880060C0C080100601800008483
:1016400084848484848C74060C0C08010018600067
:10165000008484848484848C74060C0C080100301B
:101660004800008484848484848C74060C0C0801F3
:1016700000484800008484848484848C74060E0EA0
:101680000801FE1860000084848484844C340404BF
:1016900078050C0C0802FE8080F088888890A0C035
:1016A000808080060E0E0801FE4848000084848475
:1016B00084844C340404780000000000C000000062
:1016C0000001C0000000000000000003D80000007E
:1016D000000FE0000000000000000007CC00000048
:1016E0000019B0000000000000000005A300000089
:1016F0000072D800000000000000000DB180000062
:1017000000C6D800000000000000000918C007F063
:10171000018C480000000000000000190C31FFFFA0
:10172000E6084C00000000000000001B041FC08100
:10173000FC106C00000000000000001302EE0080AE
:101740003BB064000000000000000012038F8080A6
:10175000FCE0640000000000000000181F1CC081B5
:101760009C7C6C00000000000000000E7636608358
:10177000366738000000000000000007C6273086EA
:101780007671F00000000000000000030D2F0C989F
:101790005258300000000000000000020D6506B045
:1017A000534820000000000000000003194581E0BC
:1017B000D14C6000000000000000000319C587F054
:1017C000D1CC600000000000000000039184FE9F67
:1017D00090C4C0000000000000000003B184C0817C
:1017E00090C6C0000000000000000003A384C08079
:1017F00080F2E0000000000000000001EE85808122
:10180000D09BC0000000000000000000F085408177
:10181000518780000000000000000000C0C360810C
:10182000718180000000000000000000C043608360
:1018300071018000000000000000000080666083ED
:101840003300800000000000000000009FF62082AE
:1018500037FC80000000000000000000F0C620827D
:10186000318F80000000000000000000C083208253
:10187000608080000000000000000000C18300863E
:1018800060C180000000000000000000C1FD308643
:101890005FC180000000000000000000E37F908630
:1018A000FF6180000000000000000000E767D88CA6
:1018B000F27380000000000000000000FB78DFFDF4
:1018C0008F7F800000000000000000007379F3E7C4
:1018D000CF6700000000000000000000738F60C7A9
:1018E000F8E600000000000000000000798C614371
:1018F000186F000000000000000000006D0C236263
:10190000186B00000000000000000000260666338F
:101910003C7300000000000000000000371A641152
:101920002C7600000000000000000000131B4C1982
:10193000AC6400000000000000000000199BC80813
:10194000E4CC000000000000000000000D919804AD
:10195000C4D80000000000000000000006F1B0073D
:10196000C7B00000000000000000000002332003A8
:10197000662000000000000000000000033220028A
:1019800036600000000000000000000000F460036A
:1019900017C00000000000000000000000DC600331
:1019A0001D800000000000000000000000586003DF
:1019B0000D00000000000000000000000078680337
:1019C00007000000000000000000000000303FFEA3
:1019D000060000000000000000000000003033E6B8
:1019E0000600000000000000000000000030DC0FD6
:1019F000840000000000000000000000001F8E189E
:101A0000F40000000000000000000000001C063090
:101A10001C0000000000000000000000000803E0BF
:101A20000C0000000000000000000000000C00801E
:101A3000180000000000000000000000000601C0C7
:101A400030000000000000000000000000038FF8DC
:101A5000E000000000000000000000000001FE3F68
:101A6000C000000000000000000000000000300680
:101A70000000000000000000000000000000080856
:101A80000000000000000000000000000000061040
:101A9000000000000000000000000000000003E063
:101AA0000000000000000000000000000000000036
:101AB0000000000000000001050700FF06011502FC
:101AC0002720FFFF06FF06FF0800502216568080E1
:101AD00080800080153353A0A0A002555550F850C7
:101AE000F85002555570A07028700246568090201C
:101AF00040901002455540A040A0502513538080CF
:101B000080122656408080808040122656804040B9
:101B1000404080123555A040E040A002555520209D
:101B2000F82020113353604080044151F0122252BA
:101B3000C0C00344541020408012365640A0A0A0DC
:101B4000A04012365640C0404040E00246566090E9
:101B5000102040F0024656F0106010906002465689
:101B60002060A0F02020024656F080E01090600235
:101B700046566080E0909060024656F0102020406B
:101B80004002465660906090906002465660909089
:101B9000701060122555C0C000C0C001365660608C
:101BA000006040801235552040804020034353F0B0
:101BB00000F0123555804020408012365640A0205B
:101BC0004000400246566090B0B0806002465660C9
:101BD0009090F09090024656E090E09090E002469F
:101BE00056609080809060024656E090909090E021
:101BF000024656F080E08080F0024656F080E08099
:101C00008080024656609080B09070024656909058
:101C1000F0909090123656E040404040E002465628
:101C200010101010906002465690A0C0C0A0900204
:101C300046568080808080F002465690F0F090906A
:101C40009002465690D0D0B0B09002465660909028
:101C5000909060024656E09090E080800147576087
:101C6000909090D06010024656E09090E0A09002D4
:101C70004656609040209060123656E0404040400A
:101C800040024656909090909060024656909090F8
:101C9000906060024656909090F0F0900246569008
:101CA0009060609090123656A0A0A040404002463E
:101CB00056F010204080F0123656E080808080E0A0
:101CC00003445480402010123656E020202020E0AB
:101CD00016325240A0024151F01622528040024476
:101CE000547090B0500246568080E09090E00234EC
:101CF00054608080600246561010709090700244CC
:101D00005460B0C060024656205040E0404001455B
:101D10005570906080700246568080E090909012DE
:101D200036564000C04040E01137572000202020A8
:101D3000A0400246568080A0C0A090123656C040F7
:101D4000404040E0024454A0F09090024454E0909F
:101D5000909002445460909060014555E09090E06E
:101D6000800145557090907010024454E09080803E
:101D700002445470C030E00246564040E0404030DB
:101D800002445490909070123454A0A0A040024499
:101D9000549090F0F002445490606090014555904A
:101DA00090502040024454F02040F012365620401B
:101DB000C040402022165680808080808012365697
:101DC00080406040408006425250A0FFFFFFFFFF6E
:101DD000FFFFFFFFFFFFFFFFFFFFFFFFFFFFFFFF13
:101DE000FFFFFFFFFFFFFFFFFFFFFFFF0800502285
:101DF00016568000808080800146562070A0A0701A
:101E0000200245553040E040B00255558870507072
:101E100088123656A0A040E0404022155580800030
:101E200080801137576080C0A06020C0173151A05A
:101E30000157577088A8C8A8887005335360A06000
:101E4000035353489048034252F010143151E001BB
:101E500057577088E8C8C88870074151F015335348
:101E600040A0400256562020F82020F8142454C0E8
:101E70004080C0142454C0C040C01622524080018B
:101E80004555909090E08002465670D0D05050500A
:101E9000142252C0C0112252408014345440C04019
:101EA000E005335340A040035353904890014757F7
:101EB00080808090307010014757808080B0102063
:101EC00030014757C0C040D0307010123656400025
:101ED0004080A040024656609090F0909002465696
:101EE000609090F09090024656609090F090900232
:101EF0004656609090F09090024656906090F09018
:101F000090024656606090F0909002465670A0B0E5
:101F1000E0A0B00147576090808090604002465634
:101F2000F080E08080F0024656F080E08080F00291
:101F30004656F080E08080F0024656F080E08080D7
:101F4000F0123656E040404040E0123656E0404045
:101F50004040E0123656E040404040E0123656E045
:101F600040404040E0024656E050D05050E002462B
:101F700056B090D0B0B0900246566090909090606D
:101F80000246566090909090600246566090909005
:101F90009060024656609090909060024656906025
:101FA000909090600244549060609002465670B0E9
:101FB000B0D0D0E002465690909090906002465685
:101FC0009090909090600246569090909090600211
:101FD0004656900090909060123656A0A0A04040C7
:101FE0004002465680E090E080800246566090A015
:101FF0009090A002465640207090B0500246562065
:10200000407090B05002465620507090B05002463A
:102010005650A07090B05002465650007090B0508C
:1020200002465660607090B05002445470B0A07088
:102030001135556080806040024656402060B0C037
:1020400060024656204060B0C06002465640A06024
:10205000B0C060024656A00060B0C0601236568024
:1020600040C04040E01236564080C04040E012364A
:102070005640A0C04040E0123656A000C04040E0AC
:1020800002465640306090906002465650A0E09064
:102090009090024656402060909060024656204044
:1020A00060909060024656600060909060024656D4
:1020B00050A0609090600246565000609090600280
:1020C00045556000F0006002445470B0D0E0024614
:1020D000564020909090700246562040909090700C
:1020E00002465660009090907002465650009090C4
:1020F00090700147572040909050204001465680F4
:10210000E09090E08001475750009090502040FFB1
:10211000E0FFD1AFFF32FFD0FFFEFFE0FFD1AEFF07
:10212000D0FFFEFFE0FFD11002FFFEFFD0FFE0FF77
:10213000C1FFD1AED580A83FD300408D142002A1AD
:10214000C8DA1281CFD9F1DB402EA4A6AFFFD0FFB1
:10215000FE000020002300260029002C002F003262
:10216000000001000003010601090100000A0B0242
:10217000090C0D0E08070304010000000000000018
:10218000000000000000000000000000000000004F
:10219000000000000000001211100000000000000C
:1021A000000000000000000000000000000000002F
:1021B0000000002200250028002B002E00310034F2
:1021C0000002010000050108010B010000210024AC
:1021D0000027002A002D0030003300010100000418
:1021E0000107010A01050505050705080808080299
:1021F0000202020A0A0808040404040101010101A0
:102200000101010303030303030303040707070C8E
:102210000C0C0C0C0C0C0C02020202060606060644
:102220000606060B0B0B0B0B0B0B0B0102102020F1
:10223000080810204010204080020102010804021A
:102240000101020408102040808040201008040290
:1022500001800402018040201008040201080402E9
:1022600001010204081020408001020408102040EF
:102270008000542811241FBECFEFD1E2DEBFCDBFB6
:1022800000E00CBF12E0A0E0B2E0EAE2F7E500E017
:102290000BBF02C007900D92AA37B107D9F725E00E
:1022A000AAE7B2E001C01D92A534B207E1F711E13F
:1022B000CAE3D1E100E006C021970109802FFE01A9
:1022C0000E94872BC933D10780E00807A9F70E9435
:1022D000681E0C94932B0C940000CF92DF92EF9227
:1022E000FF920F931F93CF93DF936C017A018B01C1
:1022F000C0E0D0E0CE15DF0581F0D8016D918D01F1
:10230000D601ED91FC910190F081E02DC601199567
:10231000892B11F02196EECF7E01C701DF91CF917D
:102320001F910F91FF90EF90DF90CF900895FC01E7
:10233000538D448D252F30E0842F90E0821B930B2A
:10234000541710F0CF96089501970895FC01918DD0
:10235000828D981761F0828DDF01A80FB11D5D9607
:102360008C91928D9F5F9F73928F90E008958FEF75
:102370009FEF0895FC01918D828D981731F0828D29
:10238000E80FF11D858D90E008958FEF9FEF089580
:10239000FC01918D228D892F90E0805C9F4F821BE4
:1023A00091098F739927089584ED93E0F1DF21E07F
:1023B000892B09F420E0822F0895FC01848DDF0130
:1023C000A80FB11DA35ABF4F2C91848D90E00196A8
:1023D0008F739927848FA689B7892C93A089B18997
:1023E0008C91837080648C93938D848D981306C038
:1023F0000288F389E02D80818F7D80830895EF929C
:10240000FF920F931F93CF93DF93EC0181E0888FAE
:102410009B8D8C8D981305C0E889F989808185FD95
:1024200025C0F62E0B8D10E00F5F1F4F0F73112785
:10243000E02E8C8DE8120BC00FB607FCFACFE889AE
:10244000F989808185FFF5CFCE01B7DFF2CF8B8D83
:10245000FE01E80FF11DE35AFF4FF0829FB7F89499
:102460000B8FEA89FB89808180620AC09FB7F8944C
:10247000EE89FF896083E889F989808183708064AF
:1024800080839FBF81E090E0DF91CF911F910F91FA
:10249000FF90EF900895CF93DF93EC01888D882310
:1024A000C1F0EA89FB89808185FD05C0A889B989C9
:1024B0008C9186FD0EC00FB607FCF5CF808185FF9D
:1024C000F2CFA889B9898C9185FFEDCFCE0175DF58
:1024D000E8CFDF91CF91089580E090E0892B19F04B
:1024E00063DF811125C080E090E0892B41F080E01E
:1024F00090E0892B21F00E94000081111CC080E037
:1025000090E0892B41F080E090E0892B21F00E943F
:102510000000811113C080E090E0892BA1F080E0E1
:1025200090E0892B81F00E94000081110AC008957B
:102530000E940000D8CF0E940000E1CF0E9400005E
:10254000EACF0C940000089585ED8093BC00809143
:10255000BC0084FDFCCF1092AE030895409144036B
:10256000262F30E0240F311D21323105DCF420917B
:10257000AE032430C9F4FC0180E090E0861758F4E3
:10258000309144032191DC01AC5DBC4FA30FB11D20
:102590002C930196F3CF80914403680F609344031A
:1025A00080E0089581E0089582E0089508950895F7
:1025B0000895E091B0038091AF03E81730F4F0E0A4
:1025C000EF54FC4F808190E008958FEF9FEF0895C6
:1025D0009091B0038091AF03981750F4E92FF0E089
:1025E000EF54FC4F208130E09F5F9093B00302C016
:1025F0002FEF3FEFC90108958091AF0390E0209144
:10260000B003821B91090895CF92DF92EF92FF925F
:102610000F931F93CF93DF937C01CB018A0120910D
:10262000D303222389F0EB016B01C40ED51ECC1518
:10263000DD0561F06991D701ED91FC910190F08188
:10264000E02DC7011995F3CF642F88DFC801DF9112
:10265000CF911F910F91FF90EF90DF90CF90089551
:10266000CF93DF931F92CDB7DEB769832091D30359
:102670002223D1F02091D103203240F021E030E03C
:10268000FC013383228380E090E014C08091D20368
:10269000E82FF0E0E859FC4F998190838F5F809399
:1026A000D2038093D10304C061E0CE01019656DFCE
:1026B00081E090E00F90DF91CF9108950895DC01C3
:1026C0001696ED91FC91179712968C91481B4770C6
:1026D00081E090E001C0880F4A95EAF7E60FF11D0E
:1026E0003081222311F0832B02C0809583238083C5
:1026F0000895FB014181DC0112962C91129742173B
:1027000060F013962C911397241738F0608115967A
:102710002C91621710F42481D2CF0895FC013081EE
:102720009281930F92832181921760F494819F5F2D
:1027300094838381830F821710F08FEF820F83833E
:1027400081E0089580E00895FC011282808181502B
:1027500083831482089580E008950B96FC01849190
:1027600008950A96FC0184910895FC0184910895CE
:10277000FCDF882321F0823011F083E0089586E0A9
:102780000895FC01E60FF11D849190E0982F8827B1
:102790003196E4918E0F911D089568E0F2CF66E0C6
:1027A000F0CF2EE93FE0009729F0F9013197F1F7DA
:1027B0000197F9CF0895109223030895809367033A
:1027C0001092B90084FF02C08CE001C088E48093BD
:1027D000B800F1CFDB011496ED91FC91159720E044
:1027E00030E065E01994CF92DF92EF92FF920F9361
:1027F0001F93CF93DF938C017B016A0180E0F60188
:10280000C49181110AC0CF3F09F454C04C2FB701C5
:10281000C801E0DF81114CC052C0CF3F11F44FEF2F
:10282000F6CFCE3F09F44DC0C03F08F041C0C03ED6
:1028300058F04C2F4F70D7011496ED91FC911597DD
:1028400020E030E062E00CC0C03D68F04C2F4F70DB
:10285000D7011496ED91FC91159720E030E063E0EC
:10286000C801199525C0C03CF0F0D7011496ED9130
:10287000FC91159720E030E040E064E0C801199534
:10288000C295C07FCE5FD0E0CE018BDFD70114961A
:10289000ED91FC91159720E030E041E064E0C80143
:1028A0001995CE0104C0C7FD03C08C2F90E079DFDD
:1028B00080E001C081E0BFEFCB1ADB0AA0CF80E04F
:1028C00001C081E0DF91CF911F910F91FF90EF90B8
:1028D000DF90CF900895AF92BF92CF92DF92FF9298
:1028E0000F931F93CF93DF936C018B01F42EE901BB
:1028F00020E1421709F453C0241798F03AE043133B
:1029000057C0DB011496ED91FC91159720E030E063
:1029100042E061E019954BE251E2B801C60163DF84
:1029200047C081E1481709F43DC0A5E14A1340C002
:10293000FB01A280B38043E251E2C60154DFD5011E
:1029400014964C91406BB801C60144DFD80114962F
:10295000ED91FC91159720E030E041E062E0C60186
:102960001995F50126813781D8011496ED91FC91D6
:102970001597D50115964C9166E0C6011995811100
:1029800002C080E0C2C0D8011496ED91FC91159769
:1029900020E030E040E063E0C601199509C04AE15B
:1029A00051E202C04FE051E2B801C6011CDFACC0E9
:1029B000F80102811381F2E3FF1609F46FC0FF15DD
:1029C000B8F025E1F21609F474C037E1F31609F402
:1029D00085C084E1F81298C0D8011696ED91FC915B
:1029E000179715968C919F01280F311DC9015AC068
:1029F000A6E4FA1609F481C0B7E4FB1609F480C016
:102A0000EBE3FE1281C089819B81913029F09330E4
:102A100031F4482F885004C048E0480F01C0482FC7
:102A200051E0D80113962C91281708F450E031E0BA
:102A3000F8012281421708F430E021E0481708F03D
:102A400020E0822F852B382319F4252309F45CC05C
:102A5000CA80913061F038F0923061F0933071F4B7
:102A6000FF24FA940CC0F12CDD24D39409C0FF2478
:102A7000F39405C0F12CDD24DA9402C0F12CD12CA2
:102A8000C7FE03C0BE01C80134DE88818D0D888376
:102A900089818F0D8983CC0C99F736C0BE01C8019E
:102AA00028DE32C011928E179F07E1F7C8014CDE75
:102AB0002BC0C80133DE882309F463CFD8011696F2
:102AC000ED91FC91179715968C919F01280F311D60
:102AD000C90111928E179F07E1F716C01882D8011D
:102AE00012968C911297898315968C911597815027
:102AF0008A8313968C918B8307C0F801858103C06C
:102B0000D80111968C91888381E0DF91CF911F913C
:102B10000F91FF90DF90CF90BF90AF9008950895F0
:102B200080E090E008950E948F2B6115710579F087
:102B3000FB0101900020E9F73197AF01461B570BCD
:102B4000DC01ED91FC910280F381E02D199480E08D
:102B500090E008958F929F92AF92BF92EF92FF9272
:102B60000F931F93CF93DF93CDB7DEB7A1970FB627
:102B7000F894DEBF0FBECDBF7C01FA01CB0119A2D4
:102B8000223008F42AE08E010F5D1F4F822E912C17
:102B9000A12CB12CBF01A50194010E943C29F9018F
:102BA000CA01015011096A3014F4605D01C0695C0A
:102BB000D8016C93232B242B252B61F7B801C70177
:102BC000B4DFA1960FB6F894DEBF0FBECDBFDF9184
:102BD000CF911F910F91FF90EF90BF90AF909F907A
:102BE0008F9008957F928F929F92AF92BF92CF92D3
:102BF000DF92EF92FF920F931F93CF93DF938C019D
:102C00006A017B01722E9A01AB01C701B6010E94D5
:102C1000832B882319F06EE672E027C04601570126
:102C2000E894B7F82FEF3FEF4FE75FE7C501B40136
:102C30000E94832B81110DC02FEF3FEF4FE75FE71D
:102C4000C501B4010E94D22918161CF462E772E093
:102C50000CC02FEF3FEF4FE75FE4C701B6010E94C2
:102C60001C2B18168CF466E772E0C801DF91CF9137
:102C70001F910F91FF90EF90DF90CF90BF90AF909A
:102C80009F908F907F9051CF2FEF3FEF4FE75FECFA
:102C9000C701B6010E94D22987FDE5CF20E030E0D0
:102CA000A901C701B6010E94D22987FF0FC0D80130
:102CB000ED91FC910190F081E02D6DE2C801199534
:102CC000EC01F7FAF094F7F8F09402C0C0E0D0E01D
:102CD000B12C60E070E080E09FE37B1441F020E0E5
:102CE00030E040E251E40E94D629B394F6CFA70128
:102CF00096010E946E296B017C010E943E2A4B01C5
:102D00005C012AE0AB01BC01C80124DFC80FD91F58
:102D10007720E1F1C501B4010E946A2A9B01AC0150
:102D2000C701B6010E946D296B017C01D801ED91AC
:102D3000FC910190F081E02D6EE2C8011995C80F59
:102D4000D91F20E030E040E251E4C701B6010E9403
:102D5000202B4B015C010E943E2A6B01E12CF12CDF
:102D60002AE0B701A601C801F5DEC80FD91FC701C7
:102D7000B6010E946A2A9B01AC01C501B4010E9400
:102D80006D296B017C017A947110DBCFCE01DF914C
:102D9000CF911F910F91FF90EF90DF90CF90BF9058
:102DA000AF909F908F907F9008951F920F920FB6D3
:102DB0000F9211240BB60F922F933F934F935F9373
:102DC0006F937F938F939F93AF93BF93EF93FF93F3
:102DD00084ED93E0F2DAFF91EF91BF91AF919F9173
:102DE0008F917F916F915F914F913F912F910F90B4
:102DF0000BBE0F900FBE0F901F9018951F920F9251
:102E00000FB60F9211240BB60F922F938F939F93AF
:102E1000EF93FF93E091E403F091E5038081E0916B
:102E2000EA03F091EB0382FD12C090818091ED03E3
:102E30008F5F8F732091EE03821751F0E091ED03C5
:102E4000F0E0EC52FC4F958F8093ED0301C0808140
:102E5000FF91EF919F918F912F910F900BBE0F904B
:102E60000FBE0F901F9018951F920F920FB60F92E2
:102E700011240BB60F922F933F934F935F936F9351
:102E80007F938F939F93AF93BF93EF93FF93809123
:102E9000B900887F803609F49CC068F5883209F44F
:102EA0005BC090F4803109F454C038F4882309F4ED
:102EB000F6C0883009F44DC0F5C0883109F44CC023
:102EC000803209F45DC0EEC0803409F468C048F473
:102ED000803309F455C0883309F0E4C08093AC0313
:102EE000D8C0803509F44FC0883509F45DC08834F6
:102EF00009F0D8C0D6C0883909F4C7C0A8F488370B
:102F000009F467C038F4883609F463C0803709F4DF
:102F100060C0C8C0883809F4B8C0803909F45FC0FF
:102F2000803809F0BFC05BC0803B09F486C038F42C
:102F3000803A09F466C0883A09F47FC0B3C0803C87
:102F400009F4A7C0883C09F4A4C0883B09F48AC0EE
:102F5000A9C08091A90310C09091AB038091AA03EE
:102F6000981770F5E091AB0381E08E0F8093AB036F
:102F7000F0E0E857FC4F80818093BB0085EC86C071
:102F80008093AC038EC0E091AB0381E08E0F809301
:102F9000AB038091BB00F0E0E857FC4F8083909139
:102FA000AB038091AA036EC0E091AB0381E08E0F6A
:102FB0008093AB038091BB00F0E0E857FC4F808327
:102FC0008091AD0381116DC081E08093A80384EAF4
:102FD00061C083E08093AE0310926603CFCF8091EF
:102FE0006603803208F051C0E091660381E08E0FE5
:102FF000809366038091BB00F0E0EA5BFC4F808326
:10300000BDCF85EC8093BC001092AE038091660327
:10301000803230F4E0916603F0E0EA5BFC4F10820E
:103020006091660370E0E0917A02F0917B0286E4A1
:1030300093E019951092660335C084E08093AE0347
:103040001092450310924403E0917C02F0917D02BE
:10305000199580914403811105C081E08093440358
:1030600010922403E091450381E08E0F8093450385
:10307000F0E0EC5DFC4F80818093BB0090914503B4
:1030800080914403981708F479CF85E88093BC00B9
:1030900009C085EC8093BC001092AE0303C010926F
:1030A000AC0352DAFF91EF91BF91AF919F918F9155
:1030B0007F916F915F914F913F912F910F900BBE38
:1030C0000F900FBE0F901F901895DB01ED91FC91B2
:1030D000199490912303911102C0809323030895C2
:1030E0001F93CF93DF931F921F92CDB7DEB720EDD2
:1030F00037E03A8329839091BC00982391F4298189
:103100003A81232B49F480916703182F127081FDB7
:1031100008C081E0DEDF06C029813A8121503109F3
:10312000E8CF11E0812F0F900F90DF91CF911F9189
:10313000089584E98093BC0064E080E1D1CFCF930F
:103140008093BB0084E88093BC0063E080E8C8DF24
:10315000C82F882381F080916703C82FC27081FD3A
:1031600009C08091B900887F883221F063E082E055
:10317000B0DF01C0C1E08C2FCF910895CF93DF93D2
:10318000FC0123A5222369F0EC0182D4811102C045
:1031900080E008C08EA1811180E4D1DF8823C1F3D3
:1031A0001BA681E0DF91CF9108950F931F93CF93DA
:1031B000C42F89016330B9F050F4613081F062307E
:1031C00009F03FC0FC0146A321E023A73AC06630C6
:1031D000E9F0673041F1653009F033C00CC0FC0103
:1031E00086A5ECDA2EC0FC0116A221E023A741112E
:1031F00028C09FDF26C0C2DF811103C09ADF80E0B4
:1032000021C08C2F9CDF81111CC0F8CFB7DF882331
:10321000A9F3CC23B1F0F80181918F0190DF8823CD
:1032200069F3C150F6CFAADF882341F3CC2349F0DC
:10323000F801849184DF882329F00F5F1F4FC1506C
:10324000F5CF81E0CF911F910F9108950F93FC016D
:103250000150040F84A996A9941718F0081728F4B0
:1032600002C0081750F0041740F42150260F83A91C
:1032700095A9961720F4281720F480E007C0281796
:1032800020F481E0261710F0F8CF81E00F91089527
:103290003F924F925F926F927F928F929F92AF92E6
:1032A000BF92CF92DF92EF92FF920F931F93CF9333
:1032B000DF93EC01962EDCACCBAC5C0124E0A20EDB
:1032C000B11CE98DFA8DC5011995182FE884F98490
:1032D000C7014BDA082F888599854ADA682E0130B4
:1032E00019F48FE0782E02C077247A948885998526
:1032F00038DA082F8885998530DA882E888599856F
:103300004CDAE0E6E91530F4009721F0E80EF91EFA
:1033100001E60FC08885998542DAF0E4F91530F4AA
:10332000009721F0E80EF91E01E403C021E1E20E4E
:10333000F11C891430F41C8A1F8A188E1D8A1E8A7B
:1033400097C08016C0F3862D90E0F70124912F3F9F
:1033500021F4FFEFEF1AFF0A3FC0901234C08885B6
:10336000998503DA97012F5F3F4FF701882311F00A
:10337000823091F484918F8BF9012491288FF70189
:103380003396E491EC8BF7013496E491ED8BF701E1
:103390003596E491EE8B25C08491982F9F709250C2
:1033A0009E8B82958F708D8BF9012491822F8F7067
:1033B000888F22952F702F8BF7013296E491E2953A
:1033C000EF70EC8B0EC0F7013296E491E7219C017F
:1033D0002E0F311DE20EF31E801609F4ACCF0F5FE5
:1033E000B4CFE114F10409F443C088859985C0D9AC
:1033F000782E9F88888C5D885C0CD8188E89D81AA6
:103400001D0D082D292D412F652DC5011FDF882396
:1034100069F1E70CF11C07E0090D06950695069584
:10342000382C310E4E01F0E28F0E911C602E712C63
:103430001315E1F0452C67018C2D8E19801790F43F
:10344000F60184916E817F8148A219A31BA28AA3F1
:1034500094014BE3C50139DEFFEFCF1ADF0A28E004
:10346000420EEACFE60CF71C1F5FE2CF8C8901C049
:1034700080E09BAD890F8BAF81E090E0DF91CF9131
:103480001F910F91FF90EF90DF90CF90BF90AF9082
:103490009F908F907F906F905F904F903F90089596
:1034A0000C9408290C940029962FEDE7F4E066812E
:1034B000778180A391A32DE934E042E381E894E091
:1034C00004CEBF92CF92DF92EF92FF920F931F93A1
:1034D000CF93DF93D82F162FC42F022FB22EB61AF8
:1034E000D42ED80E6B2D8D2DDFDFC02ECD1AE12E00
:1034F000EC0E6C2D8E2DD8DFFC2EFD1A6B2D8F2D32
:10350000D3DFC11B6C2D8C2FCFDF100F612F8D2DC2
:10351000CBDFD00F6D2F8E2DC7DF612F8F2DC4DF36
:103520006D2F8C2FDF91CF911F910F91FF90EF9016
:10353000DF90CF90BF90B8CFEF92FF920F931F9381
:10354000CF93DF93F82EE62EC42FD1E0D41B042FA7
:103550000195000F262F482F6C2F80E0B2DF10E07E
:103560001C1780F4D7FD03C0C1500E5FD00F1F5F42
:10357000812F880F8F5FD80F2E2D4F2D6C2F812F0D
:10358000A0DFEECFDF91CF911F910F91FF90EF90D1
:1035900008950F931F93CF93DF931F92CDB7DEB79C
:1035A0000091830410918404E091B204F091B3047B
:1035B00082E0199520E030E04AE0B80181E894E02B
:1035C00084DD182FE091B204F091B30483E01995E3
:1035D000E091B204F091B30480E019951123A1F1B8
:1035E00060918304709184049E012F5F3F4F46E4F5
:1035F00081E894E06ADD898180938104609183048D
:10360000709184049E012F5F3F4F47E481E894E06E
:103610005CDD8981809382046091830470918404CD
:1036200020E030E048E481E894E04FDD80938C04B2
:10363000609183047091840424EB34E047E181E8D5
:1036400094E043DD81E001C080E00F90DF91CF91F5
:103650001F910F910895682F81E794E001C8809130
:10366000850490918604009709F437C0209198044E
:10367000FC01211107C03596E491E0939904FC0107
:103680003C960FC0213039F43F96E491E0939904C1
:10369000FC01709606C03D96E491E0939904FC010C
:1036A0003E96E491E0939A0480919904082E000CD0
:1036B000990B20919A04821B910927FD93952091E3
:1036C0009B04203441F0829FC001112426E096958E
:1036D00087952A95E1F780939C040895CF92DF9215
:1036E000EF92FF920F931F93CF93DF93C82FD62FA4
:1036F000681718F4F82EF61A02C0F62EF81A40329F
:1037000018F400E2041B02C000EE040FF01658F497
:103710008F2DF02E082F8D2FD42F482F1C2FDD2416
:10372000D394C0E202C0D12C10E2DC1730F4812F18
:10373000142F482F8C2FCD2FD82FEF2CE694141751
:1037400018F0CC24CA9402C0CC24C394DF3F69F49F
:10375000DEEF0BC0D1100CC0612F8C2FA5DEE01A5C
:10376000E7FE02C01C0DEF0CCF5FDC1798F703C01B
:103770006C2F812FF3CFDF91CF911F910F91FF908D
:10378000EF90DF90CF9008950F931F93CF93DF9327
:10379000C82FD62F142F81E0840F282F220F462FF9
:1037A000481B6C2F681B022F81E894E04FDD8823B3
:1037B00041F0412F6D2F8C2FDF91CF911F910F91F1
:1037C000BBCEDF91CF911F910F910895CF92DF92E1
:1037D000EF92FF92CF93DF936C01990FEE08FF08F1
:1037E000F7FE19C06DE28DE794E052DDEC0144274D
:1037F0005527BA014C195D096E097F092AE08DE74A
:1038000094E0A8D98C0F9D1FDF91CF91FF90EF908E
:10381000DF90CF9008952AE0B701A6018DE794E0EC
:10382000DF91CF91FF90EF90DF90CF9093C9CF932E
:10383000DF9390E0FC01E55DFD4D2491FC01EB512F
:10384000FE4D84918823C1F090E0880F991FFC0100
:10385000E553FE4DC591D491FC01EF54FE4DA59169
:10386000B4919FB7F8948881E22FE0958E238883E6
:103870008C91E823EC939FBFDF91CF91089591E065
:103880009093D30380933B051092D2031092D103FF
:1038900008959091AE039111FCCF613208F060E27F
:1038A00091E09093AE039093AD032FEF2093AC0380
:1038B0001092AB03260F2093AA039093A903909133
:1038C000A903880F892B8093A9038091A8038130D5
:1038D00061F41092A8038091A9038093BB008091AA
:1038E000BC0083FDF8CF85EC01C085EE8093BC0061
:1038F0008091AE038130E1F38091AB03861710F421
:103900006091AB03A8E8B3E0E1EBF3E080E0861759
:1039100021F09D9191938F5FFACF1092B003809325
:10392000AF0308953091D103313208F04BC080913C
:10393000AE038111FCCF90913B0522E02093AE03B2
:1039400021E02093AD032FEF2093AC031092AB0343
:103950003093AA03E8E6F3E0A8E8B3E020E03217EA
:1039600021F041914D932F5FFACF1092A90320913E
:10397000A903990F922B9093A9039091A8039130DA
:1039800061F41092A8039091A9039093BB009091C9
:10399000BC0093FDF8CF95EC01C095EE9093BC0070
:1039A0009091AE039230E1F39091AC039F3F79F098
:1039B0008091AC03803241F08091AC03803331F0D0
:1039C00084E005C081E003C082E001C083E0109282
:1039D000D2031092D1031092D3030895CF93DF93B3
:1039E000282F30E0F901E559FE4D8491F901E55D9C
:1039F000FD4DD491F901EB51FE4DC491CC2381F0E2
:103A00008111A1D0EC2FF0E0EE0FFF1FEF54FE4D1F
:103A1000A591B4918FB7F894EC91ED2BEC938FBFF7
:103A2000DF91CF9108958F929F92AF92BF92CF92E4
:103A3000DF92EF92FF92DDD04B015C0184E6C82E4D
:103A4000D12CE12CF12CD5D0DC01CB0188199909BE
:103A5000AA09BB09883E9340A105B105A0F321E066
:103A6000C21AD108E108F10888EE880E83E0981E9A
:103A7000A11CB11CC114D104E104F10421F7FF9091
:103A8000EF90DF90CF90BF90AF909F908F90089570
:103A9000CF9384EA8093BC0061E080E821DB882337
:103AA00051F08091B900887F883039F0803129F059
:103AB00061E082E00EDBC0E01BC088E78093BB00C2
:103AC00084E88093BC0062E080E80ADB882399F3F5
:103AD00080916703C82FC27081FD09C08091B90031
:103AE000887F883121F062E082E0F3DA01C0C1E032
:103AF0008C2FCF910895CF93DF93282F30E0F901D9
:103B0000E559FE4D8491F901E55DFD4DD491F90132
:103B1000EB51FE4DC491CC2389F0811114D0EC2FD0
:103B2000F0E0EE0FFF1FEF5AFE4DA591B491EC911E
:103B3000ED2381E090E021F480E002C080E090E09D
:103B4000DF91CF91089590E0FC013197E231F105CA
:103B500008F04EC08827EE58FF4F8F4F0C94872BEC
:103B6000809180008F7703C0809180008F7D80934B
:103B70008000089580918000877FF9CF84B58F778A
:103B800002C084B58F7D84BD08958091B0008F7789
:103B900003C08091B0008F7D8093B0000895809124
:103BA00090008F7707C0809190008F7D03C0809137
:103BB0009000877F8093900008958091A0008F7778
:103BC00007C08091A0008F7D03C08091A000877FF7
:103BD0008093A0000895809120018F7707C0809185
:103BE00020018F7D03C080912001877F8093200179
:103BF00008953FB7F8948091410590914205A091B6
:103C00004305B091440526B5A89B05C02F3F19F088
:103C10000196A11DB11D3FBFBA2FA92F982F88274C
:103C2000820F911DA11DB11DBC01CD0142E0660FA7
:103C3000771F881F991F4A95D1F708951F920F92F9
:103C40000FB60F9211242F933F938F939F93AF93AF
:103C5000BF9380913C0590913D05A0913E05B091A8
:103C60003F053091400523E0230F2D3720F40196C6
:103C7000A11DB11D05C026E8230F0296A11DB11D8F
:103C80002093400580933C0590933D05A0933E050D
:103C9000B0933F058091410590914205A091430565
:103CA000B09144050196A11DB11D809341059093EB
:103CB0004205A0934305B0934405BF91AF919F91F6
:103CC0008F913F912F910F900FBE0F901F901895DD
:103CD000CF93DF93CDB7DEB762970FB6F894DEBF10
:103CE0000FBECDBF789484B5826084BD84B58160F9
:103CF00084BD85B5826085BD85B5816085BD8091B7
:103D00006E00816080936E0010928100809181002E
:103D10008260809381008091810081608093810026
:103D2000809180008160809380008091B1008460E8
:103D30008093B1008091B00081608093B000809149
:103D400091008260809391008091910081608093C6
:103D50009100809190008160809390008091A100FB
:103D600082608093A1008091A10081608093A10076
:103D70008091A00081608093A000809121018260E9
:103D800080932101809121018160809321018091A4
:103D9000200181608093200180917A00846080936B
:103DA0007A0080917A00826080937A0080917A0014
:103DB000816080937A0080917A00806880937A0095
:103DC0001092C1001092B0031092AF031092D20370
:103DD0001092D1031092AE0381E08093AD03109254
:103DE000A80384E1FBDD85E1F9DD8091B9008E7FD8
:103DF0008093B9008091B9008D7F8093B90088E4E9
:103E00008093B80085E48093BC0086ED92E19093A6
:103E10007D0280937C0287ED92E190937B028093F8
:103E20007A02E091E403F091E50382E08083E0917F
:103E3000E003F091E1031082E091E203F091E303EB
:103E40008FEC80831092EC03E091E803F091E9039A
:103E500086E08083E091E603F091E7038081806152
:103E60008083E091E603F091E7038081886080839E
:103E7000E091E603F091E703808180688083E09120
:103E8000E603F091E70380818F7D80838CE0F7DC8F
:103E900080E690E0E0DB80E090E0DDDB8CE590E028
:103EA000DADB80E090E0D7DB3DDD61E070E08CE0C4
:103EB00090E0EFDC8091AF0390E02091B003821B93
:103EC0009109019721F481E794E00E94E8128CE0C7
:103ED000D6DC80E690E0BFDB82E090E0BCDB84EBE8
:103EE00090E0B9DB88E090E0B6DB1CDD61E070E0DB
:103EF0008CE090E0CEDC8091AF0390E02091B003A5
:103F0000821B9109019721F481E794E00E94E81255
:103F10008DE0B5DC80E690E09EDB80E090E09BDB0E
:103F20008CE590E098DB80E090E095DBFBDC61E0E5
:103F300070E08DE090E0ADDC8091AF0390E02091E7
:103F4000B003821B9109019721F481E794E00E945C
:103F5000E8128DE094DC80E690E07DDB82E090E08A
:103F60007ADB84EB90E077DB88E090E074DBDADCEE
:103F700061E070E08DE090E08CDC8091AF0390E038
:103F80002091B003821B9109019721F481E794E00D
:103F90000E94E81282E04BDC83E049DC84E047DCED
:103FA00085E045DC86E043DC81E090E07BDA282F89
:103FB00030E0A0E2BEE40E945E29C12CD12C760143
:103FC000CA94A70196010E941629DA01C9018051FD
:103FD0009742A109B1099093CD028093CC0282E06F
:103FE00090E060DA282F30E0A0E2BEE40E945E2973
:103FF000A70196010E941629DA01C9018051974252
:10400000A109B1099093CF028093CE0283E090E0A2
:1040100049DA282F30E0A0E2BEE40E945E29A70121
:1040200096010E941629DA01C90180519742A1091F
:10403000B1099093C9028093C80284E090E032DA1B
:10404000282F30E0A0E2BEE40E945E29A70196017D
:104050000E941629DA01C90180519742A109B109CC
:104060009093CB028093CA0285E090E01BDA282F60
:1040700030E0A0E2BEE40E945E29A70196010E9402
:104080001629DA01C90180519742A109B10990931B
:10409000C5028093C40286E090E004DA282F30E065
:1040A000A0E2BEE40E945E29A70196010E941629A3
:1040B000DA01C90180519742A109B1099093C70261
:1040C0008093C60287E090E0EDD9282F30E0A0E28F
:1040D000BEE40E945E29A70196010E941629DA011A
:1040E000C90180519742A109B1099093C1028093FF
:1040F000C00288E090E0D6D9282F30E0A0E2BEE4EC
:104100000E945E29A70196010E941629DA01C901C1
:1041100080519742A109B1099093C3028093C202D2
:10412000F0E22F2EFEE43F2E412C512C8CE0A7DB39
:104130008EE390E090DAF6DB61E070E08CE090E0F6
:10414000A8DB8091AF0390E02091B003821B91091E
:10415000019721F481E794E00E94E8128CE08FDB64
:104160008EE490E078DADEDB67E070E08CE090E0EF
:1041700090DB8091AF0390E02091B003821B910906
:10418000079709F581E794E00E94E81281E794E03F
:104190000E94E8128B8381E794E00E94E8123C01C0
:1041A00081E794E00E94E8128C8381E794E00E940A
:1041B000E8129A83898381E794E00E94E81281E7FC
:1041C00094E00E94E8122B812E831D828D819E81B6
:1041D000860D971D90932203809321033C8138879D
:1041E0001F828F819885E981FA818E0F9F1F90939E
:1041F000200380931F038DE042DB8EE390E02BDAF7
:1042000091DB61E070E08DE090E043DB8091AF03F3
:1042100090E02091B003821B9109019721F481E77E
:1042200094E00E94E8128DE02ADB8EE490E013DA3D
:1042300079DB67E070E08DE090E02BDB8091AF03ED
:1042400090E02091B003821B9109079709F581E75F
:1042500094E00E94E81281E794E00E94E8128B83C8
:1042600081E794E00E94E8123C0181E794E00E941B
:10427000E8128C8381E794E00E94E8129A83898394
:1042800081E794E00E94E81281E794E00E94E8123E
:10429000FB81FA87198689859A85860D971D9093EB
:1042A0001E0380931D032C812C871B868B859C8588
:1042B000E981FA818E0F9F1F90931C0380931B034B
:1042C0008091BA04811104C081E08093BA0461D95D
:1042D00020918304309184043E872D87E091B204BD
:1042E000F091B30482E01995E091B204F091B30427
:1042F00081E0199520E030E044E16D857E8581E81C
:1043000094E00E94651824EB34E047E16D857E85DA
:1043100081E894E00E946518E091B204F091B30442
:1043200080E0199529E3D22E38E0C32E40E1B42E67
:1043300058E1A52E68E2962E70E3872E80918504C1
:1043400090918604875B9A4169F087EB9AE190939C
:1043500086048093850483D9EBEAF3E1F093970414
:10436000E0939604FBE7F093B804D092B9048091EF
:10437000DC029091DD022ADA8091DC029091DD026C
:10438000892BB9F500E420E840E060E081E894E0A2
:104390000E942619882369F197EBE92E96E1F92E00
:1043A0001F8687011D86F8018491609183047091B6
:1043B0008404FD85F0939D042F8520939E04109224
:1043C000A00480939F042DE934E04BE381E894E05E
:1043D0000E9465180F5F1F4F3D85385F3D8730385D
:1043E00011F780E1E80EF11C9F859F5F9F87903455
:1043F000C1F68091DC029091DD02019709F078C04E
:104400001092B804C092B90460E472E08DE794E0C1
:104410000E9495151092B804B092B90480912103BE
:1044200090912203D3D91092B804A092B90480913C
:10443000AE029091AF02CAD91092B8049092B9041A
:104440006AE472E08DE794E00E9495151092B8043A
:104450008092B90480911F0390912003B7D91092E4
:10446000B804E8E3E093B9048091AC029091AD0206
:10447000ADD9F0E4F093B804C092B9046FE472E0EF
:104480008DE794E00E94951520E42093B804B09243
:10449000B90480911D0390911E0398D930E43093A4
:1044A000B804A092B9048091AA029091AB028ED96F
:1044B00080E48093B8049092B90466E572E08DE7D9
:1044C00094E00E94951590E49093B8048092B9040A
:1044D00080911B0390911C0379D9E0E4E093B80428
:1044E000F8E3F093B90480910002909101026ED933
:1044F0008091DC029091DD020297A9F520E230E084
:1045000030938502209384023093830220938202A9
:1045100044E160E280E238D942E060918202809119
:10452000840232D9409182026091840280E2D6D81E
:1045300080E690E09093810280938002E0E2F0E0D8
:10454000F0937F02E0937E0244E160E21DD942E0F5
:1045500060917E028091800217D940917E02609125
:10456000800280E6BBD88091DC029091DD02039747
:1045700009F04FC080918504909186048850914045
:1045800069F028E031E0309386042093850467D8F1
:104590008BEA93E190939704809396041092B80469
:1045A0008BE08093B9046CE572E08DE794E00E94A3
:1045B00095158091850490918604875B9A4169F0F6
:1045C00027EB3AE1309386042093850448D88BEAA0
:1045D00093E190939704809396041092B80482E339
:1045E0008093B90462E672E08DE794E00E9495152D
:1045F0001092B804D092B9044091A6025091A7023B
:104600006091A8027091A90222E08DE794E00E94D7
:10461000F215E0918F04F0919004309719F081E841
:1046200094E01995E0918304F0918404FE87ED876E
:10463000E091B204F091B30482E01995E091B204E4
:10464000F091B30481E0199520E030E045E16D85FB
:104650007E8581E894E00E946518182F882349F030
:1046600024EB34E047E16D857E8581E894E00E948B
:104670006518E091B204F091B30480E0199511112E
:104680005DCE8FB7F89480903C0590903D05A0904A
:104690003E05B0903F058FBF80911703909118039E
:1046A000A0911903B0911A0388159905AA05BB05B5
:1046B00008F06DC12EED32E03E872D8706E812E04E
:1046C0008EEFE82E82E0F82EED85FE852191319166
:1046D000FE87ED87C901330FAA0BBB0B9C01AD010F
:1046E0002E5D334041095109A6E6B6E0BBD52CEF5B
:1046F00033E040E050E09AD5DA01C90183559F4F7D
:10470000AF4FBF4FF801819391938F012D853E8567
:10471000E216F306C9F68FE08093FE02209186022E
:10472000309187022093FF02809188029091890244
:1047300097703770AC0123E0440F551F2A95E1F7BD
:10474000432B4093000320918A0230918B0245E075
:10475000959587954A95E1F7A90166E0440F551FA5
:104760006A95E1F7842B80930103C90197709C013E
:1047700035952795359527952093020320918C0236
:1047800030918D023770492F45954595C901880FA5
:10479000991F842B8093030380918E0290918F0246
:1047A0009770220F232F221F330BAC01A4E0440F7C
:1047B000551FAA95E1F7242B209304032091900222
:1047C00030919102B4E095958795BA95E1F7A901EA
:1047D0005695542F442757954795842B809305036E
:1047E0003770C90195958795809306038091920251
:1047F000909193029770432F45959C01220F331F90
:10480000220F331F242B2093070320919402309111
:10481000950266E0959587956A95E1F7A90175E09F
:10482000440F551F7A95E1F7842B80930803E3E04A
:1048300036952795EA95E1F7209309032091960292
:104840003091970220930A038091980290919902E7
:1048500097703770AC01F3E0440F551FFA95E1F7FC
:10486000432B40930B0320919A0230919B02A5E0C9
:1048700095958795AA95E1F7A901B6E0440F551FD4
:10488000BA95E1F7842B80930C03C90197709C01C2
:10489000359527953595279520930D0320919C02FA
:1048A00030919D023770492F45954595C901880F74
:1048B000991F842B80930E0380919E0290919F02FA
:1048C0009770220F232F221F330BAC0164E0440F9B
:1048D000551F6A95E1F7242B20930F032091A00226
:1048E0003091A10274E0959587957A95E1F7A90139
:1048F0005695542F442757954795842B8093100342
:104900003770C90195958795809311038091A20214
:104910009091A3029770432F45959C01220F331F5E
:10492000220F331F242B209312032091A4023091D5
:10493000A502B6E095958795BA95E1F7A90115E02E
:10494000440F551F1A95E1F7842B8093130303E05E
:10495000369527950A95E1F72093140310921503D5
:104960001092160349E150E06EEF72E084ED93E09F
:104970000E946D113FE0830E911CA11CB11C80921E
:10498000170390921803A0921903B0921A0386E0BD
:10499000B2D89A8B898B82E0AED89E878D8783E0D0
:1049A000AAD8988B8F8784E0A6D885E0A4D886E023
:1049B00015D882E013D883E011D884E00FD885E0C1
:1049C0000DD88091DC029091DD02019709F0AEC113
:1049D00089899A89019799F42FB7F89480913C05B9
:1049E00090913D05A0913E05B0913F052FBF80936A
:1049F000D8029093D902A093DA02B093DB022FB7CA
:104A0000F89480913C0590913D05A0913E05B091B0
:104A10003F052FBF4091D8025091D9026091DA0230
:104A20007091DB02841B950BA60BB70B813D974061
:104A3000A105B10508F47AC16091210370912203A8
:104A40007093D7026093D60240911F0350912003C8
:104A50005093D5024093D40220911D0330911E0340
:104A60003093D3022093D20280911B0390911C03B8
:104A70009093D1028093D002E091CE02F091CF02C8
:104A8000E617F70734F4FB017497F093CF02E09335
:104A9000CE02E091CC02F091CD026E177F0734F484
:104AA0006C5E7F4F7093CD026093CC026091CA021E
:104AB0007091CB02641775073CF4BA016451710917
:104AC0007093CB026093CA026091C8027091C902D0
:104AD0004617570734F44C5E5F4F5093C90240931A
:104AE000C8024091C6025091C702421753073CF4D6
:104AF000A901445151095093C7024093C602409105
:104B0000C4025091C5022417350734F42C5E3F4F80
:104B10003093C5022093C4022091C2023091C30297
:104B2000281739073CF49C01245131093093C30202
:104B30002093C2022091C0023091C10282179307D4
:104B40002CF444969093C1028093C0022091CC0231
:104B50003091CD02C901330FAA0BBB0B9C01AD01F3
:104B6000205F384D4F4F5F4FAFEFB0E07BD3A201D6
:104B700091015CD3298B2093BE023093BF02209118
:104B8000CE023091CF02C901330FAA0BBB0B9C019F
:104B9000AD01205F384D4F4F5F4FAFEFB0E062D3B4
:104BA000A201910143D33093BD022093BC02209116
:104BB000C8023091C902C901330FAA0BBB0B9C017B
:104BC000AD01205F384D4F4F5F4FAFEFB0E04AD39C
:104BD000A20191012BD33093BB022093BA02209102
:104BE000CA023091CB02C901330FAA0BBB0B9C0147
:104BF000AD01205F384D4F4F5F4FAFEFB0E032D384
:104C0000A201910113D33093B9022093B8022091ED
:104C1000C4023091C502C901330FAA0BBB0B9C0122
:104C2000AD01205F384D4F4F5F4FAFEFB0E01AD36B
:104C3000A2019101FBD23093B7022093B6022091DA
:104C4000C6023091C702C901330FAA0BBB0B9C01EE
:104C5000AD01205F384D4F4F5F4FAFEFB0E002D353
:104C6000A2019101E3D23093B5022093B4022091C6
:104C7000C0023091C102C901330FAA0BBB0B9C01CA
:104C8000AD01205F384D4F4F5F4FAFEFB0E0EAD23C
:104C9000A2019101CBD23093B3022093B2022091B2
:104CA000C2023091C302C901330FAA0BBB0B9C0196
:104CB000AD01205F384D4F4F5F4FAFEFB0E0D2D224
:104CC000A2019101B3D23093B1022093B00269895D
:104CD00081E090E00E94501A6091BC0282E090E076
:104CE0000E94501A6091BA0283E090E00E94501A2C
:104CF0006091B80284E090E00E94501A6091B60280
:104D000085E090E00E94501A6091B40286E090E045
:104D10000E94501A6091B20287E090E00E94501AFF
:104D20006091B00288E090E00E94501A4091210307
:104D3000509122038091D6029091D7028A01052ECC
:104D4000000C220B330B6C01092E000CEE08FF083F
:104D5000841795071CF18090CC029090CD02092C0D
:104D6000000CAA08BB08A9019801281939094A09A9
:104D70005B09A4E6B0E076D2A701960128193909AB
:104D80004A095B0953D2DA01C90184569109A10984
:104D9000B1099093AF028093AE021CC0A9019801A3
:104DA0002C193D094E095F09A4E6B0E05BD22091C1
:104DB000CE023091CF028901330F220B330BA901B0
:104DC00098012C193D094E095F0930D23093AF028A
:104DD0002093AE0240911F03509120038091D40292
:104DE0009091D5028A01052E000C220B330B6C0129
:104DF000092E000CEE08FF08841795071CF180901F
:104E0000C8029090C902092C000CAA08BB08A9018D
:104E10009801281939094A095B09A4E6B0E022D2B1
:104E2000A7019601281939094A095B09FFD1DA015E
:104E3000C90184569109A109B1099093AD028093EB
:104E4000AC021CC0A90198012C193D094E095F094B
:104E5000A4E6B0E007D22091CA023091CB028901CA
:104E6000330F220B330BA90198012C193D094E0970
:104E70005F09DCD13093AD022093AC0240911D0359
:104E800050911E038091D2029091D3028A01052E87
:104E9000000C220B330B6C01092E000CEE08FF08EE
:104EA000841795071CF18090C4029090C502092CCC
:104EB000000CAA08BB08A9019801281939094A0958
:104EC0005B09A4E6B0E0CED1A70196012819390903
:104ED0004A095B09ABD1DA01C90184569109A109DC
:104EE000B1099093AB028093AA021CC0A90198015A
:104EF0002C193D094E095F09A4E6B0E0B3D1209119
:104F0000C6023091C7028901330F220B330BA9016E
:104F100098012C193D094E095F0988D13093AB02E5
:104F20002093AA0240911B0350911C038091D00250
:104F30009091D1028A01052E000C220B330B6C01DB
:104F4000092E000CEE08FF08841795071CF18090CD
:104F5000C0029090C102092C000CAA08BB08A9014C
:104F60009801281939094A095B09A4E6B0E07AD109
:104F7000A7019601281939094A095B0957D1DA01B5
:104F8000C90184569109A109B10990930102809346
:104F900000021CC0A90198012C193D094E095F09A6
:104FA000A4E6B0E05FD12091C2023091C302490172
:104FB000330FAA08BB08A50194012C193D094E091D
:104FC0005F0934D130930102209300022D853E8584
:104FD000232B71F48091DC029091DD0285309105E4
:104FE0003CF401969093DD028093DC020E94131D35
:104FF0008F859889892B71F48091DC029091DD0274
:10500000181619063CF401979093DD028093DC0298
:105010000E94131D80917B00877F80937B0087E433
:1050200080937C0080917A00806480937A008091E4
:105030007A0086FDFCCF609178008091790070E065
:10504000782B072E000C880B990B46D22AE038E209
:1050500040EA5BE3F5D22AE43BE743EE5EE3A6D108
:105060006093A6027093A7028093A8029093A9026E
:1050700062E672E084ED93E00E9495154091A602ED
:105080005091A7026091A8027091A90222E084EDDC
:1050900093E00E94F2156BE672E084ED93E00E94CB
:1050A00095150E946C1242C81092D7031092D60335
:1050B00088EE93E0A0E0B0E08093D8039093D9030A
:1050C000A093DA03B093DB0324E132E03093D503FD
:1050D0002093D40325EC30E03093E1032093E003E8
:1050E00024EC30E03093E3032093E20320EC30E043
:1050F0003093E5032093E40321EC30E03093E703A1
:105100002093E60322EC30E03093E9032093E80398
:1051100026EC30E03093EB032093EA031092ED038A
:105120001092EE031092EF031092F00310927404A9
:10513000109273048093750490937604A09377047F
:10514000B093780486E292E09093720480937104A5
:105150001092800410927F0488E392E090937E0482
:1051600080937D041092B8041092B9041092BA048E
:10517000109286041092850410928804109287047D
:1051800010928A0481E08093890482E280938B04E8
:105190001092900410928F04E4EAF4E082EB94E021
:1051A0002FEF21938E179F07E1F781E08093A104F1
:1051B0002BEA33E13093970420939604809398046C
:1051C0001092990410929A0480E480939B041092A8
:1051D0009C048EE593E19093B3048093B2048AE03B
:1051E00092E090938404809383041092AF040E9411
:1051F000C91A88E392E090937E0480937D04089519
:10520000F999FECF92BD81BDF89A992780B508958E
:10521000262FF999FECF1FBA92BD81BD20BD0FB6D2
:10522000F894FA9AF99A0FBE01960895052E97FB05
:1052300016F400940FD057FD05D01ED007FC02D005
:1052400046F408C050954095309521953F4F4F4FFB
:105250005F4F089590958095709561957F4F8F4F22
:105260009F4F08952BD0A59F900DB49F900DA49FA4
:10527000800D911D11240895A1E21A2EAA1BBB1BBB
:10528000FD010DC0AA1FBB1FEE1FFF1FA217B30712
:10529000E407F50720F0A21BB30BE40BF50B661F28
:1052A000771F881F991F1A9469F7609570958095EC
:1052B00090959B01AC01BD01CF010895A29FB00163
:1052C000B39FC001A39F700D811D1124911DB29F3A
:1052D000700D811D1124911D08955058BB27AA27D8
:1052E0000ED070C161D130F066D120F031F49F3F13
:1052F00011F41EF456C10EF4E095E7FB4CC1E92F02
:1053000072D180F3BA17620773078407950718F004
:1053100071F49EF58AC10EF4E0950B2EBA2FA02DE4
:105320000B01B90190010C01CA01A0011124FF2752
:10533000591B99F0593F50F4503E68F11A16F0404D
:10534000A22F232F342F4427585FF3CF469537954C
:105350002795A795F0405395C9F77EF41F16BA0B11
:10536000620B730B840BBAF09150A1F0FF0FBB1FBF
:10537000661F771F881FC2F70EC0BA0F621F731F08
:10538000841F48F4879577956795B795F7959E3F65
:1053900008F0B3CF9395880F08F09927EE0F9795F3
:1053A00087950895D4D008F481E008950CD00AC1FF
:1053B00002D140F0F9D030F021F45F3F19F0EBC09A
:1053C000511134C1EEC00FD198F39923C9F355237D
:1053D000B1F3951B550BBB27AA27621773078407E8
:1053E00038F09F5F5F4F220F331F441FAA1FA9F39E
:1053F00033D00E2E3AF0E0E830D091505040E69590
:10540000001CCAF729D0FE2F27D0660F771F881FF0
:10541000BB1F261737074807AB07B0E809F0BB0BDF
:10542000802DBF01FF2793585F4F2AF09E3F510503
:1054300068F0B1C0FBC05F3FECF3983EDCF38695AB
:1054400077956795B795F7959F5FC9F7880F911D79
:105450009695879597F90895E1E0660F771F881F65
:10546000BB1F621773078407BA0720F0621B730B18
:10547000840BBA0BEE1F88F7E0950895BCD088F036
:105480009F5790F0B92F9927B751A0F0D1F0660F30
:10549000771F881F991F1AF0BA95C9F712C0B1304B
:1054A00081F0C3D0B1E00895C0C0672F782F88275E
:1054B000B85F39F0B93FCCF3869577956795B3958A
:1054C000D9F73EF490958095709561957F4F8F4FF9
:1054D0009F4F0895E89409C097FB3EF490958095FE
:1054E000709561957F4F8F4F9F4F9923A9F0F92FAA
:1054F00096E9BB279395F695879577956795B79528
:10550000F111F8CFFAF4BB0F11F460FF1BC06F5F0D
:105510007F4F8F4F9F4F16C0882311F096E911C01F
:10552000772321F09EE8872F762F05C0662371F040
:1055300096E8862F70E060E02AF09A95660F771F54
:10554000881FDAF7880F9695879597F90895990F30
:105550000008550FAA0BE0E8FEEF16161706E8073D
:10556000F907C0F012161306E407F50798F0621B5E
:10557000730B840B950B39F40A2661F0232B242B33
:10558000252B21F408950A2609F4A140A6958FEF52
:10559000811D811D089597F99F6780E870E060E0A4
:1055A00008959FEF80EC089500240A9416161706BC
:1055B00018060906089500240A9412161306140604
:1055C00005060895092E0394000C11F4882352F067
:1055D000BB0F40F4BF2B11F460FF04C06F5F7F4F1F
:1055E0008F4F9F4F089557FD9058440F551F59F006
:1055F0005F3F71F04795880F97FB991F61F09F3FC0
:1056000079F087950895121613061406551FF2CFE8
:105610004695F1DF08C0161617061806991FF1CF38
:1056200086957105610508940895E894BB2766275F
:105630007727CB0197F908958ADF08F48FEF089553
:105640000BD0C0CFB1DF28F0B6DF18F0952309F0FA
:10565000A2CFA7CF1124EACFC6DFA0F3959FD1F345
:10566000950F50E0551F629FF001729FBB27F00D10
:10567000B11D639FAA27F00DB11DAA1F649F662765
:10568000B00DA11D661F829F2227B00DA11D621FB4
:10569000739FB00DA11D621F839FA00D611D221F6E
:1056A000749F3327A00D611D231F849F600D211D52
:1056B000822F762F6A2F11249F5750408AF0E1F0F5
:1056C00088234AF0EE0FFF1FBB1F661F771F881F3E
:1056D00091505040A9F79E3F510570F05CCFA6CF86
:1056E0005F3FECF3983EDCF3869577956795B79529
:1056F000F795E7959F5FC1F7FE2B880F911D969553
:10570000879597F9089523DF880B990B0895EE0F7D
:10571000FF1F881F8BBF0790F691E02D199481E041
:0A57200090E0F89400C0F894FFCF69
:10572A000100084000000080BB046B140202D51877
:10573A0000000000FF116D1197114B12C811A6113C
:10574A00BA1100000000301304139015D812FC128D
:10575A00E812D9120000000048196D1190158F1532
:10576A005468726F74746C653A005961773A0050E4
:10577A00697463683A00526F6C6C3A0053657475C9
:10578A007000566F6C746167653A000D0A006E61AD
:0A579A006E00696E66006F7666000F
:00000001FF
